:100000000C942A000C943F000C943F000C943F0089
:100010000C943F000C943F000C943F000C943F0064
:100020000C943F000C943F000C943F000C943F0054
:100030000C943F000C943F000C943F000C943F0044
:100040000C943F000C943F000C943F000C943F0034
:100050000C943F0011241FBECFE5D4E0DEBFCDBF1E
:1000600010E0A0E6B0E0E4EBF2E002C005900D92F3
:10007000A437B107D9F70E945B000C9458010C9487
:10008000000088BB84E082BB88EB9BE0FC013197D9
:10009000F1F712BA0197F1F7089588BB85E082BBAA
:1000A00028EB3BE0C9010197F1F781E082BBC90170
:1000B0000197F1F708950F931F93DF93CF93CDB777
:1000C000DEB767970FB6F894DEBF0FBECDBF8FEFD8
:1000D00087BB81BB8CE088BB94E092BB28EB3BE004
:1000E000F9013197F1F712BAF9013197F1F781E08F
:1000F00088BB92BBF9013197F1F712BAF901319738
:10010000F1F780E888BB92BBF9013197F1F712BA99
:10011000F9013197F1F788E388BB92BBC9010197D8
:10012000F1F712BAC9010197F1F78BE292E0BE0133
:100130006F5F7F4F4AE050E00E941301DE0114968A
:10014000E0E6F0E088E001900D928150E1F71D8635
:100150001C86DE011E96EAE6F0E086E001900D9234
:100160008150E1F71C8A1D8A1E8A1F8A20E030E038
:10017000DE011496BE016F5F7F4F05E048EB5BE048
:1001800011E00FC0FB01E20FF31F808188BB02BBAF
:10019000CA010197F1F712BBCA010197F1F72F5F6E
:1001A0003F4FFD01E20FF31F8081882359F788E854
:1001B00093E12CE231E0F9013197F1F70197D9F79A
:1001C00081E088BB94E092BB28EB3BE0F9013197DA
:1001D000F1F712BAF9013197F1F780EC88BB92BBC5
:1001E000C9010197F1F712BAC9010197F1F7FE01B0
:1001F0003E9655E041E009C088BB52BBC90101975A
:10020000F1F742BBC9010197F1F781918823A1F76A
:1002100067960FB6F894DEBF0FBECDBFCF91DF91CA
:100220001F910F910895FB019F01E8944230C4F0A3
:100230004532B4F44A3029F497FB1EF49095819529
:100240009F4F642F77270E944401805D8A330CF012
:10025000895D8193CB010097A1F716F45DE251937C
:100260001082C9010C943401DC01FC01672F7191EB
:100270007723E1F7329704C07C916D93708362918C
:10028000AE17BF07C8F30895AA1BBB1B51E107C0F7
:10029000AA1FBB1FA617B70710F0A61BB70B881F16
:1002A000991F5A95A9F780959095BC01CD010895A5
:0402B000F894FFCFF0
:1002B40077656C636F6D65000000312C322C330060
:0402C4000000000036
:00000001FF
