:100000000C942A000C943F000C943F000C943F0089
:100010000C943F000C943F000C943F000C943F0064
:100020000C943F000C943F000C943F000C943F0054
:100030000C943F000C943F000C943F000C943F0044
:100040000C943F000C943F000C943F000C943F0034
:100050000C943F0011241FBECFE5D4E0DEBFCDBF1E
:1000600010E0A0E6B0E0E4E7F1E002C005900D92F8
:10007000A836B107D9F70E945B000C94B8000C9425
:10008000000088BB84E082BB80ED97E0FC013197E3
:10009000F1F712BA0197F1F7089588BB85E082BBAA
:1000A00020ED37E0C9010197F1F781E082BBC9017A
:1000B0000197F1F70895DF93CF93CDB7DEB7289777
:1000C0000FB6F894DEBF0FBECDBF8FEF81BB87BBED
:1000D00088E388BB94E092BB20ED37E0F9013197CB
:1000E000F1F712BAF9013197F1F781E088BB92BBC1
:1000F000F9013197F1F712BAF9013197F1F78CE074
:1001000088BB92BBF9013197F1F712BAF901319727
:10011000F1F780E888BB92BBC9010197F1F712BAE9
:10012000C9010197F1F7DE011196E0E6F0E088E001
:1001300001900D928150E1F7FE01319655E020EDDE
:1001400037E041E009C088BB52BBC9010197F1F714
:1001500042BBC9010197F1F781918823A1F7289645
:100160000FB6F894DEBF0FBECDBFCF91DF910895DB
:04017000F894FFCF31
:0801740077656C636F6D650097
:00000001FF
