:100000000C942A000C9434000C9434000C943400AA
:100010000C9434000C9434000C9434000C94340090
:100020000C9434000C9434000C9434000C94340080
:100030000C9434000C9434000C9434000C94340070
:100040000C9434000C9434000C9434000C94340060
:100050000C94340011241FBECFE5D4E0DEBFCDBF29
:100060000E94DB000C941D010C94000086EE86B902
:10007000089590E497B997B1982B97B988EB9BE0D6
:100080000197F1F794B185B1382F20E0290F311D88
:10009000C90108955F9BFECF8CB1089520E030E048
:1000A0000000000000000000000000000000000050
:1000B000000000002F5F3F4F8217930788F70895D5
:1000C0008CB95E9BFECF88EE93E00E944E000895AF
:1000D000CF92DF92EF92FF920F931F93CF93DF9314
:1000E000EC0168EE73E00E940901462F262F30E0F4
:1000F00088E19CEF289F7001299FF00C389FF00C3D
:100100001124F701EC0FFD1FCF0164E670E00E949F
:100110000901D62E262F30E08CE99FEF289F800121
:10012000299F100D389F100D1124CF01800F911FB2
:100130006AE070E00E940901C62E442321F0842F5A
:10014000805D0E9460008D2D805D0E9460008C2D7E
:10015000805D0E946000CE01805D282F2E0D200F53
:1001600086EF9FEFC89E802D1124820F0E946000B1
:10017000DF91CF911F910F91FF90EF90DF90CF9083
:100180000895CF93DF93EC0103C021960E94600095
:1001900088818823D1F7DF91CF9108951BB888E13A
:1001A0008AB986E880BD10BC83E389B988EE93E004
:1001B0000E944E000895DF92EF92FF920F931F93DB
:1001C000CF93DF930E94CE0086EE86B990E4D92EBD
:1001D00088EBE82E8BE0F82E0CE211E0D7B887B15F
:1001E00087B9C7010197F1F794B185B1D82FC0E065
:1001F0009E01290F311DC9010E9468008AE00E94FA
:10020000600088EE93E0F8013197F1F70197D9F794
:10021000E5CFAA1BBB1B51E107C0AA1FBB1FA61736
:10022000B70710F0A61BB70B881F991F5A95A9F79F
:0E02300080959095BC01CD010895F894FFCF04
:00000001FF
