:100000000C942A000C9418010C943C000C943C00B5
:100010000C943C000C943C000C943C000C943C0070
:100020000C943C000C943C000C943C000C943C0060
:100030000C943C000C943C000C943C000C943C0050
:100040000C943C000C943C000C943C000C943C0040
:100050000C943C0011241FBECFE5D4E0DEBFCDBF21
:1000600010E0A0E6B0E001C01D92A436B107E1F7B0
:100070000E94E3000C946E010C94000086EE86B999
:10008000089590E497B997B1982B97B988EB9BE0C6
:100090000197F1F794B185B1382F20E0290F311D78
:1000A000C90108955F9BFECF8CB1089520E030E038
:1000B0000000000000000000000000000000000040
:1000C000000000002F5F3F4F8217930788F70895C5
:1000D0008CB95E9BFECF88EE93E00E945600089597
:1000E000CF92DF92EF92FF920F931F93CF93DF9304
:1000F000EC0168EE73E00E944701462F262F30E0A6
:1001000088E19CEF289F7001299FF00C389FF00C2C
:100110001124F701EC0FFD1FCF0164E670E00E948F
:100120004701D62E262F30E08CE99FEF289F8001D3
:10013000299F100D389F100D1124CF01800F911FA2
:100140006AE070E00E944701C62E442321F0842F0C
:10015000805D0E9468008D2D805D0E9468008C2D5E
:10016000805D0E946800CE01805D282F2E0D200F3B
:1001700086EF9FEFC89E802D1124820F0E94680099
:10018000DF91CF911F910F91FF90EF90DF90CF9073
:100190000895CF93DF93EC0103C021960E9468007D
:1001A00088818823D1F7DF91CF9108951BB888E12A
:1001B0008AB986E880BD10BC83E389B988EE93E0F4
:1001C0000E94560008950F931F93CF93DF938BEFF8
:1001D00081BB86EE86B90E94D60084EF91E02CE2C6
:1001E00031E0F9013197F1F70197D9F780E48BBF3E
:1001F00081E085BF1FBC789401E01CE3CCE2D1E034
:1002000002BB812F8A95F1F712BA8091600090911C
:1002100061006AE370E00E945B01CB010E94700004
:1002200088EE93E0FE013197F1F70197D9F7E8CF17
:100230001F920F920FB60F9211248F939F9380916C
:10024000620090916300019769F41EBC8CB59DB566
:1002500090936100809360001DBC1CBC10926300F1
:10026000109262008091620090916300892B41F4AA
:1002700081E08EBD81E090E0909363008093620006
:100280009F918F910F900FBE0F901F901895AA1BF2
:10029000BB1B51E107C0AA1FBB1FA617B70710F071
:1002A000A61BB70B881F991F5A95A9F780959095A3
:1002B000BC01CD01089597FB092E07260AD077FDD2
:1002C00004D0E5DF06D000201AF4709561957F4FC9
:1002D0000895F6F7909581959F4F0895F894FFCF74
:00000001FF
